:020000040800F2
:100000007806002089010008510B0008490B000800
:100010004D0B000891020008650B0008000000006D
:10002000000000000000000000000000590B000864
:100030009502000800000000550B00085D0B000849
:10004000A3010008A3010008A3010008A301000800
:10005000A3010008A3010008A3010008A3010008F0
:10006000A3010008A3010008A3010008A3010008E0
:10007000A3010008A3010008A3010008A3010008D0
:10008000A3010008A3010008A3010008A3010008C0
:10009000A3010008A3010008A3010008A3010008B0
:1000A000A3010008A3010008A3010008A3010008A0
:1000B000A3010008A301000800000000A30100083C
:1000C000A30100080000000000000000A3010008D8
:1000D00000000000A3010008A301000800000000C8
:1000E000A3010008A3010008A301000800F002F822
:1000F00000F03AF80AA090E8000C82448344AAF188
:100100000107DA4501D100F02FF8AFF2090EBAE885
:100110000F0013F0010F18BFFB1A43F0010318473B
:10012000340B0000540B0000103A24BF78C878C18B
:10013000FAD8520724BF30C830C144BF04680C60ED
:10014000704700000023002400250026103A28BF35
:1001500078C1FBD8520728BF30C148BF0B60704739
:100160001FB51FBD10B510BD00F058F81146FFF7C0
:10017000F7FF00F0F9FC00F076F803B4FFF7F2FFA8
:1001800003BC00F07DF8000009488047094800479B
:10019000FEE7FEE7FEE7FEE7FEE7FEE7FEE7FEE737
:1001A000FEE7FEE704480549054A064B7047000094
:1001B000610B0008ED0000087800002078060020A0
:1001C00078020020780200204FF0000200B51346AC
:1001D00094469646203922BFA0E80C50A0E80C5067
:1001E000B1F12001BFF4F7AF090728BFA0E80C5018
:1001F00048BF0CC05DF804EB890028BF40F8042B11
:1002000008BF704748BF20F8022B11F0804F18BF7D
:1002100000F8012B7047704770477047754600F033
:100220002BF8AE4605006946534620F00700854688
:1002300018B020B5FFF7B6FFBDE820404FF000062C
:100240004FF000074FF000084FF0000BAC46ACE851
:10025000C009ACE8C009ACE8C009ACE8C00921F0AD
:1002600007018D46704710B50446AFF30080204665
:10027000BDE81040FFF781BF004870471000002024
:1002800001491820ABBEFEE72600020070470000BF
:10029000FEE7000070470000B0B5044600F01AF910
:1002A000054640F20400C2F200000078611C18BF4D
:1002B000044400BF00F00EF9401BA042FAD3B0BDC9
:1002C0002DE9F04F82B00E68002E00F0F18040F270
:1002D0000C4C40F2004E41F20002C4F2010CC4F298
:1002E000010EC4F201020327002401234FF0000B8A
:1002F0004FF00009904208BF0227009748E040F6FF
:100300000042C4F20102009F904208BF012704F09E
:100310000C030F229A402AEA020207FA03F34FEA7B
:100320009B051A4346F825204E68F203DEF80020AC
:1003300054BF22EA080242EA0802CEF80020DEF8A2
:100340000420B30354BF22EA080242EA0802CEF8AE
:100350000420F302DEF8082054BF22EA080242EA31
:100360000802B302CEF80820DCF800204FF00103A9
:1003700054BF22EA080242EA0802CCF800200E68C4
:100380000BF1010B36FA0BF204F1040400F090803B
:1003900003FA0BFA16EA0A08F1D04E684FF6FF721C
:1003A000C1F21002964211DC122E51D8DFE806F09D
:1003B000340A4246505050505050505050505050B7
:1003C00050494D00D1F80C9042E000BF4FF6FF724B
:1003D000C1F2210296420FDC0022C1F211029642C4
:1003E0001AD00022C1F21202964215D00022C1F2A8
:1003F0002102964210D02BE00022C1F22202964246
:100400000AD00022C1F23102964205D00022C1F288
:10041000320296421CD100BF8A6842B1012A14BF41
:10042000C0F814A0C0F810A04FF0080910E04FF079
:1004300004090DE0CA6802F1080909E04FF000095B
:1004400006E0CA6802F1040902E0CA6802F10C0978
:1004500022460646B8F5807F24BF203A0436376826
:100460000F25954027EA050509FA02F22A43326072
:10047000CA79D2067FF583AF41F21803C4F20203B2
:100480001A68AEF57E7642F001021A601A6802F030
:1004900001020192019A2BF0030256F802A040F6E5
:1004A0000002C4F2010290427FF429AF00272EE738
:1004B00002B0BDE8F08F0000C26802EA0103914378
:1004C00041EA034101617047002A08BF0904016144
:1004D0007047000040F27000C2F2000000687047F0
:1004E00040F2040040F27001C2F20000C2F20001CA
:1004F00000780A68104408607047000080B542F236
:100500000000C4F20200016841F010010160032004
:1005100000F07EF80F2000F005F800F02BF8002026
:1005200080BD0000B0B540F20402C2F2000240F209
:1005300000011278C2F200014FF47A730968B3FB2C
:10054000F2F20446B1FBF2F1084600F0E7FA0F2C94
:100550004FF001050CD858B94FF0FF30214600226A
:10056000002500F029F840F20800C2F20000046003
:100570002846B0BD82B041F21800C4F20200016802
:10058000022241F001010160016801F001010191C5
:100590000199416841F080514160406800F080500D
:1005A000009000980420C4F20100016862F31A610F
:1005B000016002B07047000010B54EF60C5CCEF240
:1005C000000CDCF80030C3F3022E8EF00704042C7C
:1005D00028BF0424BEF103034FF0FF3E0EFA04F4DB
:1005E00038BF0023A14399400EFA03F39A43114305
:1005F00000F1604200F00F03090102F56442043B80
:100600006344002848BF03F10C02117010BD0000C4
:100610004EF60C51CEF200010A684FF6FF031A4065
:1006200060F30A2242F0806040F0FD70086070477D
:100630002DE9F04381B0002800F0858042F20008E7
:10064000C4F202080446D8F800000D4600F0070086
:1006500088420CD2D8F8000020F007002843C8F8E0
:100660000000D8F8000000F00700A8426BD1206815
:1006700041F204098107C4F2020917D5410705D5E3
:10068000D9F8001041F4E061C9F80010010705D560
:10069000D9F8001041F46051C9F80010D9F80010E1
:1006A000A26821F0F0011143C9F80010C00741D140
:1006B000D8F8000000F00700A8420CD9D8F80000D4
:1006C00020F007002843C8F80000D8F8000000F028
:1006D0000700A84237D12068410707D5D9F8001094
:1006E000E26821F4E0611143C9F80010000708D561
:1006F000D9F80000216920F4605040EAC100C9F82F
:100700000000D9F8002002F00C00082841F2002077
:10071000C0F27A004ED140F64443C2F38341C0F6A2
:100720000003595CD20339D440F60010C0F23D00FA
:1007300048433FE06068022809D0012829D159F8D0
:10074000041C890307D4012001B0BDE8F08359F8E7
:10075000041C8901F7D5D9F8001021F003010843E2
:10076000C9F80000FFF7B6FE064641F2883700BF21
:10077000D9F80000616800F00C00B0EB810F97D051
:10078000FFF7A8FE801BB842F2D9032001B0BDE8F4
:10079000F08359F8041C8907D5D5DCE7D9F8002087
:1007A00040F63243C2F34042C0F600039A5C48432D
:1007B000B0FBF2F0D9F8001040F63442C1F3031157
:1007C000C0F60002515C40F2000220FA01F140F252
:1007D0000800C2F200000068C2F200021160FFF7D8
:1007E000A1FE002001B0BDE8F08300002DE9F0413A
:1007F00082B0002800F0D7800446007841F200065D
:10080000C007C4F2020644D0706800F00C0004284F
:1008100017D0706800F00C00082802D17068C0037F
:100820000FD465682DB1B5F5A02F10D0B5F5803F78
:1008300011D0306820F480303060306820F480209F
:100840000CE03068800324D5606810BBABE03068F2
:1008500040F480203060306840F480303060FFF732
:1008600039FE002D054611D03068800311D4FFF702
:1008700031FE401B6428F7D916E100BFFFF72AFEBE
:10088000401B64284FF0030000F28A803068800328
:10089000F4D42078800718D5706810F00C0F07D0BA
:1008A000706800F00C00082827D17068C00324D4B9
:1008B0003068800702D52069012874D130686169E9
:1008C00020F0F80040EAC1003060207800074FD5E2
:1008D000A06940B30020C4F242200121C0F8801476
:1008E000FFF7F8FD054600BF706A80072DD4FFF7BB
:1008F000F1FD401B0228F7D9D6E02069002840F21C
:100900000000C4F2422000F0A68001210160FFF740
:10091000E1FD054630688007D0D4FFF7DBFD401BC2
:100920000228F7D9C0E00020C4F242200021C0F81C
:100930008014FFF7CFFD0546706A800718D5FFF7D2
:10094000C9FD401B0228F7D9AEE040F20000C2F218
:100950000000006844F6D351C1F26201A0FB01011E
:10096000480A019000BF0198411E00280191F9D169
:10097000207840071BD4E5698DB1706800F00C0049
:10098000082846D1012D0ED07068216A00F480320B
:100990008A4208D1616A00F47010884203D10020B5
:1009A00002B0BDE8F081012002B0BDE8F081F0693D
:1009B00010F0805808D1F06940F08050F061F06983
:1009C00000F080500090009847F20007C4F2000742
:1009D0003868C0050FD4386840F480703860FFF77D
:1009E00079FD05463868C00505D4FFF773FD401B47
:1009F0006428F7D958E0E5681DB1052D3CD0012DDC
:100A00003ED0306A20F001003062306A20F00400ED
:100A100039E00027C4F2422700203866FFF75AFD6C
:100A2000022D05460CD100BF3068800154D5FFF778
:100A300051FD401B02284FF00300F5D9B0E700BF7D
:100A400030688001ABD5FFF745FD401B02284FF011
:100A50000300F5D9A4E700210160FFF73BFD05463F
:100A6000306880077FF531AFFFF734FD401B022867
:100A70004FF00300F4D993E7306A40F0040030628D
:100A8000306A40F001003062FFF724FD002D05467A
:100A900041F2883714D000BF306A800713D4FFF7C3
:100AA00019FD401BB842F7D9032002B0BDE8F08120
:100AB000FFF710FD401BB8424FF003003FF670AF48
:100AC000306A8007F4D4B8F1000F7FF454AFF069B6
:100AD00020F08050F0614EE7206AB0F5803F05D1EC
:100AE0007168A26821F40031114371607168626A13
:100AF00021F4741111430843706001203866FFF738
:100B0000E9FC0446306880013FF549AFFFF7E2FC9D
:100B1000001B02284FF00300F4D941E7411E0020DA
:100B2000B0EB116F1CBF012070474EF21002CEF2E5
:100B3000000251604EF62351CEF20001F0230B70FB
:100B40000721906011607047FEE70000FEE700009B
:100B5000FEE700007047000070470000FFF7C0BCD0
:100B600070470000FEE7000090B0FFF7C7FC06AC3E
:100B700020462821FFF728FB0220069001200A903A
:100B8000102000250B9020460595CDE90355CDE9B1
:100B900001550D95FFF72AFE18B1EFF3108072B6DC
:100BA000FEE70F20CDE9010501A80021CDE903559D
:100BB0000595FFF73DFD20B1EFF3108072B600BF41
:100BC000FEE7002541F21800CDE90855CDE90655AC
:100BD000C4F20200016840F6004441F008010160DF
:100BE0000168C4F2010401F0080101910199016852
:100BF000002241F0040101600068012100F00400BE
:100C00000190019820460126FFF75EFC0220099022
:100C100006A92046CDE906660895FFF751FB00BFFF
:100C200020460121FFF748FC4FF47A70FFF734FBB0
:100C3000F6E70102000000000000000001020304CA
:100C40000607080902030405060708090A0B0C0D2C
:100C50000E0F1010780C000800000020100000009B
:100C600028010008880C0008100000206806000019
:100C700044010008000000000024F400010000000E
:080C800010000000000000005C
:04000005080000ED02
:00000001FF
